:020000040800F2
:1000000000000420012C0008452C0008432C0008A7
:10001000452C0008452C0008452C0008452C0008FC
:10002000452C0008452C0008452C0008452C0008EC
:10003000452C0008452C0008452C00086571000877
:10004000452C0008452C0008452C0008452C0008CC
:10005000452C0008452C0008452C0008452C0008BC
:10006000452C0008B1250008452C0008452C000847
:10007000452C0008452C0008452C0008452C00089C
:10008000452C0008452C0008452C0008452C00088C
:10009000452C0008452C0008452C0008452C00087C
:1000A000452C0008452C0008452C0008452C00086C
:1007C00010B5054C237833B9044B13B1044800E04D
:1007D00000BF0123237010BDEC00002000000000CA
:1007E000A88C000808B5034B1BB10349034800E07F
:1007F00000BF08BD00000000F0000020A88C000829
:10080000A3F5803A704700BF174B002B08BF134B6E
:100810009D46FFF7F5FF00218B460F461348144A0B
:10082000121A08F09AF80E4B002B00D098470D4B87
:10083000002B00D098470020002104000D000D4837
:10084000002802D00C4800E000BF08F055F8200056
:10085000290006F0FDF808F03BF800BF0000080092
:10086000000000000000000000000420EC00002058
:1008700054030020000000000000000090B585B087
:1008800000AF01212E2002F037FE01213A2002F0B4
:1008900033FE1D4B3C460FCB84E80F0001230B2297
:1008A0000521012005F0D8F801230B2204210120A5
:1008B00005F0D2F8154BD3F8F03423F4702323F06D
:1008C0000303124A43F4A02343F00103C2F8F034B7
:1008D0000E4BD3F8EC3423F4702323F003030B4ABC
:1008E00043F4802343F00103C2F8EC34074B0322A6
:1008F000C3F8E8243B4619464FF0B64005F036FAF7
:1009000000BF1437BD4690BD308A000800C00350B8
:1009100080B588B000AF03463960FB801346BB80CA
:10092000FB883B8101237B813B68FB60BB880133F3
:100930009BB23B8200237B6100233B8307F10803CA
:1009400019464FF0B64005F097FC0346FB7705E0EB
:100950004FF0B64005F042FA0346FB7797F91F3097
:10096000012BF5D000BF00BF2037BD4680BD80B54C
:100970008AB000AF03463960FB80FB883B820223CC
:100980007B8207F10C037B6102233B8307F1100399
:1009900019464FF0B64005F06FFC034687F8273044
:1009A00006E04FF0B64005F019FA034687F8273005
:1009B00097F92730012BF4D097F92730002B06D177
:1009C0003A7B3B681A703B6801337A7B1A7000BF30
:1009D0002837BD4680BD000080B483B000AF034619
:1009E000FB7197F90730002B0BDBFB7903F01F023B
:1009F000074997F907305B09012000FA02F241F834
:100A0000232000BF0C37BD465DF8047B704700BF54
:100A100000E100E080B483B000AF0346FB7197F9BA
:100A20000730002B0CDBFB7903F01F02074997F915
:100A300007305B09012000FA02F2603341F82320FD
:100A400000BF0C37BD465DF8047B704700E100E055
:100A500080B483B000AF03463960FB71FB79002B93
:100A600007D0FB79012B04D0FB79022B01D0FB7955
:100A7000032B0948FA7901213B68994013465B0032
:100A800013441B01034403F50153196000BF0C37E5
:100A9000BD465DF8047B704700C0035080B483B04E
:100AA00000AF03463960FB71FB79002B07D0FB795F
:100AB000012B04D0FB79022B01D0FB79032B0948D1
:100AC000FA7901213B68994013465B0013441B01EE
:100AD000034403F58253196000BF0C37BD465DF82F
:100AE000047B704700C0035080B483B000AF03465E
:100AF0003960FB71FB79002B07D0FB79012B04D007
:100B0000FB79022B01D0FB79032B0948FA790121EB
:100B10003B68994013465B0013441B01034403F5F3
:100B20004153196000BF0C37BD465DF8047B704728
:100B300000C0035080B483B000AF786039607B6838
:100B4000DA6C3B68DB431A407B68DA6400BF0C3721
:100B5000BD465DF8047B704780B483B000AF786019
:100B600039607B68DA6C3B681A437B68DA6400BFE3
:100B70000C37BD465DF8047B70470000B0B588B007
:100B800000AF01213A2002F0B7FC0121292002F038
:100B9000B3FC002304220421032004F05DFF0023A2
:100BA00001220521032004F057FF00230422022123
:100BB000022004F051FF002304220321022004F04C
:100BC0004BFF154B3C1D1D460FCD0FC495E807008C
:100BD00084E80700114B124AC3F838270F4B114A1B
:100BE000C3F830270D4B1422C3F820274FF4E1330C
:100BF000FB603B1D19460C4805F0EAFD0920FFF794
:100C000009FF0920FFF7E8FE04210748FFF7A4FFCA
:100C100000BF2037BD46B0BD408A000800C0035069
:100C2000030004000300050000C0055080B582B039
:100C300000AF0346FB71282001F08EFAFB79032BED
:100C40002ED801A252F823F0590C00086B0C0008B2
:100C50007D0C00088F0C000802210220FFF7F8FE2F
:100C600003210220FFF7F4FE1BE002210220FFF720
:100C700015FF03210220FFF7EBFE12E00221022004
:100C8000FFF7E6FE03210220FFF708FF09E002213B
:100C90000220FFF703FF03210220FFF7FFFE00E021
:100CA00000BF282001F058FA00BF0837BD4680BDBC
:100CB00080B582B000AF78600B467B807B883C2B90
:100CC00001D900F0D3F87B881946786801F0C0FCA0
:100CD00000BF0837BD4680BD90B585B000AF7860D5
:100CE0000B467B800023FB600AE0FB687A68D4181F
:100CF000084805F043FE03462370FB680133FB60A0
:100D00007B88FA689A42F0DB00BF00BF1437BD460B
:100D100090BD00BF00C00550B0B58AB000AF78608C
:100D200004212048FFF706FF0320FFF77FFF1E4A3C
:100D300007F124031268114619800233120C1A704D
:100D40001A4B07F108041D460FCD0FC495E80700A4
:100D500084E807004FF416533B6107F10803194676
:100D6000104805F035FD07F1240303211846FFF76D
:100D70009FFF06217868FFF7AFFF4FF4E1333B6137
:100D800007F108031946074805F022FD042105482C
:100D9000FFF7E2FE0020FFF749FF00BF2837BD46FE
:100DA000B0BD00BF00C005505C8A0008408A000842
:100DB000B0B58CB000AF07F1080383E80300134619
:100DC000FB7104212748FFF7B5FE0320FFF72EFF34
:100DD000254B07F114041D460FCD0FC495E80700FD
:100DE00084E807004FF41653FB6107F1140319461A
:100DF0001C4805F0EDFCFB79C03B042B1DD801A27B
:100E000052F823F0190E0008370E0008190E0008DA
:100E1000370E0008370E0008FB793B7207F1080314
:100E200006211846FFF744FF07F10803062118467C
:100E3000FFF752FF01E000F019F84FF4E133FB61D6
:100E400007F114031946074805F0C2FC04210548C0
:100E5000FFF782FE0020FFF7E9FE00BF3037BD46F6
:100E6000B0BD00BF00C00550408A000880B500AF8B
:100E700007210020FFF738FEC82001F06DF9F7E7E1
:100E800080B483B000AF78607B68324A93420ED062
:100E90007B68314A93420AD07B68304A934206D03D
:100EA0007B682F4A934202D07B682E4A934200BF50
:100EB0007B68284A934245D07B68264A934203D0F8
:100EC0007B68254A93423AD07B68224A934207D0F6
:100ED0007B68214A934203D07B68204A93422BD0FF
:100EE0007B681C4A93420BD07B681B4A934207D015
:100EF0007B681A4A934203D07B68194A934218D000
:100F00007B68144A934212D07B68134A93420ED0F6
:100F10007B68124A93420AD07B68114A934206D0FA
:100F20007B68104A934202D14FF6FF730CE0002316
:100F30000AE04FF6FF7307E04FF6FF7304E04FF04F
:100F4000FF3301E04FF0FF3318460C37BD465DF824
:100F5000047B70470080045000C00450000005501E
:100F6000004005500080055080B584B000AFF860A7
:100F7000B9607A60F868FFF783FFFB681B6BFA685B
:100F8000BB685B01134470337A681A6000BF103786
:100F9000BD4680BD80B584B000AFF860B9607A60AE
:100FA000F868FFF76DFFFB681B6BFA68BB685B01B5
:100FB000134468337A681A6000BF1037BD4680BD9D
:100FC00080B483B000AF78607B68DB6918460C376B
:100FD000BD465DF8047B704780B582B000AF786095
:100FE00039607868FFF74CFF7B681B6B7B683A6859
:100FF000DA6100BF0837BD4680BD000080B485B00F
:1010000000AF78608023FB607B68184A934221D050
:10101000164A934221D8164A934218D0144A934252
:101020001BD8144A93420FD0124A934215D8124A41
:10103000934203D0114A934203D00EE02423FB6075
:101040000CE02523FB6009E02623FB6006E0272354
:10105000FB6003E02823FB6000E000BFFB6818464C
:101060001437BD465DF8047B704700BF0080055013
:1010700000400550000005500080045000C004509E
:1010800080B58EB000AF786039607B681B68184609
:10109000FFF7B4FF78630121786B02F02DFA01218C
:1010A0003A2002F029FA7B6858797B689B791946C7
:1010B0003B681B79042204F0CFFC07F11C030022DB
:1010C0001A605A609A601A73032387F8223001234A
:1010D00087F8213002237B773B681B79012B0CBFFB
:1010E00001230023DBB287F826307B6818687B6811
:1010F0001B79194607F11C031A4605F041FA7B6873
:101100001B68304A93421DD07B681B682E4A93426D
:1011100016D07B681B682D4A93420FD07B681B68F2
:101120002B4A934208D07B681B682A4A934201D11C
:10113000294B08E0294B06E0294B04E0294B02E04B
:10114000294B00E0294B3B637B681B799B003A6B82
:1011500013443B637B685B791A467B689B791B046D
:1011600013431A463B6B1A60786B02F0F1F90246A2
:101170003B681B68B2FBF3F3013BFB627B681B68B7
:10118000F96A1846FFF728FF7B6818687B681B79A7
:1011900000221946FFF7FEFE07F10C0300221A6039
:1011A0005A609A60DA6001233B737B681B6807F121
:1011B0000C021146184605F053F90023184638373B
:1011C000BD4680BD0080045000C0045000000550A2
:1011D000004005500080055004C7035064C603500A
:1011E000E4C60350C4C60350A4C6035084C60350CB
:1011F00080B483B000AF78607B681B791A46012306
:1012000003FA02F0184A7B681B6818498B421ED00B
:101210007B681B6816498B4217D07B681B68154991
:101220008B4210D07B681B6813498B4209D07B68C6
:101230001B6812498B4201D1042309E04FF0FF33B0
:1012400006E0032304E0022302E0012300E0002380
:101250000146B4335B011344196000BF0C37BD462F
:101260005DF8047B704700BF00C00350008004504D
:1012700000C004500000055000400550008005509B
:1012800080B584B000AF78600B46FB707B681B684C
:101290001846FFF795FEF8607B6818687B681B7935
:1012A0001946FB78FA6802FB03F3054AA2FB032305
:1012B0005B091A46FFF758FE00BF1037BD4680BDD8
:1012C0001F85EB5180B489B000AF7860396000238E
:1012D000FB6130E0FB699B003A681A44FB699B00A4
:1012E00079680B4412781A70FB699B0001333A68E5
:1012F0001A44FB699B00013379680B4412781A7019
:10130000FB699B0002333A681A44FB699B00023375
:1013100079680B4412781A70FB699B0003333A68B2
:101320001A44FB699B00033379680B4412781A70E6
:10133000FB690133FB61FB69032BCBD90423FB6100
:1013400081E0FB69013B9B00BB617A68BB69134488
:101350001B783B73BB6901337A6813441B787B733A
:10136000BB6902337A6813441B78BB73BB690333D0
:101370007A6813441B78FB73FB6903F00303002BAB
:1013800025D13B7BFB757B7B3B73BB7B7B73FB7B03
:10139000BB73FB7DFB733B7B1A46304B9B5C3B7303
:1013A0007B7B1A462D4B9B5C7B73BB7B1A462B4B7E
:1013B0009B5CBB73FB7B1A46284B9B5CFB733A7BA5
:1013C000FB699B082649CB5C5340DBB23B73FB694E
:1013D0009B003B61FB69043B9B00BB617A68BB6976
:1013E000134419783A7B78683B6903444A40D2B287
:1013F0001A70BB6901337A68134419787A7B3B69A8
:101400000133786803444A40D2B21A70BB69023390
:101410007A6813441978BA7B3B69023378680344CD
:101420004A40D2B21A70BB6903337A681344197800
:10143000FA7B3B690333786803444A40D2B21A709E
:10144000FB690133FB61FB692B2B7FF67AAF00BF91
:1014500000BF2437BD465DF8047B7047608A0008F2
:10146000608C000880B582B000AF786039607B681E
:1014700039681846FFF726FF00BF0837BD4680BD14
:1014800080B487B000AF0346B9607A60FB73002375
:10149000FB7527E00023BB751EE0FA7DBB7DB968B4
:1014A00092000A4413441878FB7B9A00FB7D134496
:1014B0009A00BB7D13441A467B6813441978FA7D61
:1014C000BB7D4140C8B2B96892000A441344024649
:1014D0001A70BB7D0133BB75BB7D032BDDD9FB7D52
:1014E0000133FB75FB7D032BD4D900BF00BF1C3734
:1014F000BD465DF8047B704780B485B000AF78606E
:101500000023FB731DE00023BB7314E0BA7BFB7B5D
:10151000796892000A4413441B781846BA7BFB7B17
:101520000D49085C796892000A44134402461A7017
:10153000BB7B0133BB73BB7B032BE7D9FB7B013345
:10154000FB73FB7B032BDED900BF00BF1437BD4606
:101550005DF8047B704700BF608A000880B485B0E6
:1015600000AF78607B685B78FB737B685A797B6837
:101570005A707B685A7A7B685A717B685A7B7B68A1
:101580005A727B68FA7B5A737B689B78FB737B6823
:101590009A7A7B689A707B68FA7B9A727B689B79EF
:1015A000FB737B689A7B7B689A717B68FA7B9A7382
:1015B0007B68DB78FB737B68DA7B7B68DA707B683F
:1015C000DA7A7B68DA737B68DA797B68DA727B684F
:1015D000FA7BDA7100BF1437BD465DF8047B7047B3
:1015E00080B483B000AF0346FB71FB795B005AB255
:1015F000FB79DB09DBB2194649000B441946C800E8
:10160000194603460B44DBB25BB253405BB2DBB21C
:1016100018460C37BD465DF8047B704780B584B032
:1016200000AF78600023FB73A4E0FA7B7B6813F8BB
:101630002230BB73FA7B7B6813F82220FB7B79682E
:101640009B000B445B785340DAB2FB7B79689B00CC
:101650000B449B785340DAB2FB7B79689B000B44C8
:10166000DB7853407B73FA7B7B6813F82220FB7B8B
:1016700079689B000B445B7853403B733B7B184677
:10168000FFF7AEFF03463B73FA7B7B6813F822102B
:101690003A7B7B7B5340DBB2FA7B4B40D9B27B6811
:1016A00003F82210FB7B7A689B0013445A78FB7B7B
:1016B00079689B000B449B7853403B733B7B1846F7
:1016C000FFF78EFF03463B73FB7B7A689B00134456
:1016D00059783A7B7B7B5340DAB2FB7B4A40D1B2EC
:1016E0007A689B0013440A465A70FB7B7A689B0019
:1016F00013449A78FB7B79689B000B44DB7853405A
:101700003B733B7B1846FFF76BFF03463B73FB7B4A
:101710007A689B00134499783A7B7B7B5340DAB21A
:10172000FB7B4A40D1B27A689B0013440A469A7008
:10173000FB7B7A689B001344DA78BB7B53403B7396
:101740003B7B1846FFF74CFF03463B73FB7B7A68F5
:101750009B001344D9783A7B7B7B5340DAB2FB7B06
:101760004A40D1B27A689B0013440A46DA70FB7B88
:101770000133FB73FB7B032B7FF657AF00BF00BF2A
:101780001037BD4680BDB0B584B000AF786000238F
:10179000FB603BE37B68FA6813F82230FB727A68DF
:1017A000FB689B0013445B78BB727A68FB689B0004
:1017B00013449B787B727A68FB689B001344DB7848
:1017C0003B72FB7A1846FFF70BFF03461846FFF7FC
:1017D00007FF03461846FFF703FF03461846FFF7C7
:1017E000FFFEBB7A1846FFF7FBFE03461846FFF7DD
:1017F000F7FEBB7A1846FFF7F3FE03461846FFF7DD
:10180000EFFE03461846FFF7EBFE03461846FFF7C8
:10181000E7FE7B7A1846FFF7E3FE7B7A1846FFF770
:10182000DFFE03461846FFF7DBFE03461846FFF7C8
:10183000D7FE03461846FFF7D3FE3B7A1846FFF75C
:10184000CFFE3B7A1846FFF7CBFE03461846FFF75C
:10185000C7FE3B7A1846FFF7C3FE03461846FFF75C
:10186000BFFE03461846FFF7BBFE03461846FFF7C8
:10187000B7FEFB7A1846FFF7B3FE03461C46FB7A19
:101880001846FFF7ADFE03461846FFF7A9FE0346CC
:101890006340DCB2FB7A1846FFF7A2FE0346184607
:1018A000FFF79EFE03461846FFF79AFE0346634085
:1018B000DCB2BB7A1846FFF793FE03461A46BB7AA2
:1018C0005340DDB2BB7A1846FFF78AFE034618463E
:1018D000FFF786FE03461846FFF782FE03466B407D
:1018E000DBB26340DCB27B7A1846FFF779FE034631
:1018F0001846FFF775FE03461A467B7A5340DDB261
:101900007B7A1846FFF76CFE03461846FFF768FE21
:1019100003461846FFF764FE03466B40DBB26340A4
:10192000DCB23B7A1846FFF75BFE03461846FFF72A
:1019300057FE03461846FFF753FE03461A463B7A06
:101940005340DBB26340D9B27B68FA6803F82210D7
:10195000FB7A1846FFF744FEFB7A1846FFF740FE75
:1019600003461846FFF73CFEFB7A1846FFF738FEA1
:1019700003461846FFF734FE03461846FFF730FECD
:1019800003461846FFF72CFEBB7A1846FFF728FEE1
:1019900003461846FFF724FE03461846FFF720FECD
:1019A00003461846FFF71CFE7B7A1846FFF718FE21
:1019B00003461846FFF714FE7B7A1846FFF710FE21
:1019C00003461846FFF70CFE03461846FFF708FECD
:1019D00003461846FFF704FE3B7A1846FFF700FE61
:1019E0003B7A1846FFF7FCFD03461846FFF7F8FD63
:1019F00003461846FFF7F4FD03461846FFF7F0FDCF
:101A0000FB7A1846FFF7ECFD03461846FFF7E8FDA2
:101A100003461846FFF7E4FD03461A46FB7A534097
:101A2000DCB2BB7A1846FFF7DBFD03461D46BB7AE6
:101A30001846FFF7D5FD03461846FFF7D1FD0346CC
:101A40006B40DDB2BB7A1846FFF7CAFD0346184665
:101A5000FFF7C6FD03461846FFF7C2FD03466B407D
:101A6000DBB26340DCB27B7A1846FFF7B9FD034670
:101A70001A467B7A5340DDB27B7A1846FFF7B0FDF9
:101A800003461846FFF7ACFD03461846FFF7A8FDCE
:101A900003466B40DBB26340DCB23B7A1846FFF78B
:101AA0009FFD03461846FFF79BFD03461A463B7A07
:101AB0005340DDB23B7A1846FFF792FD03461846C5
:101AC000FFF78EFD03461846FFF78AFD03466B407D
:101AD000DBB26340D9B27A68FB689B0013440A46C4
:101AE0005A70FB7A1846FFF77BFDFB7A1846FFF722
:101AF00077FD03461846FFF773FD03461846FFF7C8
:101B00006FFD03461846FFF76BFDBB7A1846FFF7DB
:101B100067FDBB7A1846FFF763FD03461846FFF7DB
:101B20005FFDBB7A1846FFF75BFD03461846FFF7DB
:101B300057FD03461846FFF753FD03461846FFF7C7
:101B40004FFD7B7A1846FFF74BFD03461846FFF71B
:101B500047FD03461846FFF743FD03461846FFF7C7
:101B60003FFD3B7A1846FFF73BFD03461846FFF75B
:101B700037FD3B7A1846FFF733FD03461846FFF75B
:101B80002FFD03461846FFF72BFD03461846FFF7C7
:101B900027FDFB7A1846FFF723FD03461846FFF79B
:101BA0001FFD03461A46FB7A5340DCB2FB7A184607
:101BB000FFF716FD03461846FFF712FD03461846C9
:101BC000FFF70EFD03466340DCB2BB7A1846FFF711
:101BD00007FD03461846FFF703FD03461846FFF7C7
:101BE000FFFC03461A46BB7A5340DBB26340DCB2CB
:101BF0007B7A1846FFF7F4FC03461D467B7A1846AD
:101C0000FFF7EEFC03461846FFF7EAFC03466B407D
:101C1000DDB27B7A1846FFF7E3FC03461846FFF770
:101C2000DFFC03461846FFF7DBFC03466B40DBB2E4
:101C30006340DCB23B7A1846FFF7D2FC03461A46F3
:101C40003B7A5340DDB23B7A1846FFF7C9FC0346A6
:101C50001846FFF7C5FC03461846FFF7C1FC0346CC
:101C60006B40DBB26340D9B27A68FB689B001344D7
:101C70000A469A70FB7A1846FFF7B2FC03461846EC
:101C8000FFF7AEFCFB7A1846FFF7AAFC034618469E
:101C9000FFF7A6FC03461846FFF7A2FC03461846CA
:101CA000FFF79EFCBB7A1846FFF79AFCBB7A1846F2
:101CB000FFF796FC03461846FFF792FC03461846CA
:101CC000FFF78EFC03461846FFF78AFC7B7A18461E
:101CD000FFF786FC7B7A1846FFF782FC034618461E
:101CE000FFF77EFC7B7A1846FFF77AFC034618461E
:101CF000FFF776FC03461846FFF772FC03461846CA
:101D0000FFF76EFC3B7A1846FFF76AFC034618465D
:101D1000FFF766FC03461846FFF762FC03461846C9
:101D2000FFF75EFCFB7A1846FFF75AFC03461A469B
:101D3000FB7A5340DCB2FB7A1846FFF751FC0346AE
:101D40001846FFF74DFC03461846FFF749FC0346CB
:101D50006340DCB2BB7A1846FFF742FC03461846E4
:101D6000FFF73EFC03461A46BB7A5340DDB2BB7A0E
:101D70001846FFF735FC03461846FFF731FC0346CB
:101D80001846FFF72DFC03466B40DBB26340DCB224
:101D90007B7A1846FFF724FC03461846FFF720FC21
:101DA00003461846FFF71CFC03461A467B7A53404D
:101DB000DBB26340DCB23B7A1846FFF711FC034606
:101DC0001D463B7A1846FFF70BFC03461846FFF703
:101DD00007FC03466B40DDB23B7A1846FFF700FC78
:101DE00003461846FFF7FCFB03461846FFF7F8FBCF
:101DF00003466B40DBB26340D9B27A68FB689B0054
:101E000013440A46DA70FB680133FB60FB68032B5E
:101E10007FF7C0AC00BF00BF1037BD46B0BD0000AB
:101E200080B485B000AF78600023FB731DE0002311
:101E3000BB7314E0BA7BFB7B796892000A441344BD
:101E40001B781846BA7BFB7B0D49085C79689200C9
:101E50000A44134402461A70BB7B0133BB73BB7B3D
:101E6000032BE7D9FB7B0133FB73FB7B032BDED911
:101E700000BF00BF1437BD465DF8047B704700BF4C
:101E8000608B000880B485B000AF78607B685B7BB6
:101E9000FB737B685A7A7B685A737B685A797B68D4
:101EA0005A727B685A787B685A717B68FA7B5A70E1
:101EB0007B689B78FB737B689A7A7B689A707B68F7
:101EC000FA7B9A727B689B79FB737B689A7B7B6851
:101ED0009A717B68FA7B9A737B68DB78FB737B680B
:101EE000DA797B68DA707B68DA7A7B68DA717B682A
:101EF000DA7B7B68DA727B68FA7BDA7300BF1437AF
:101F0000BD465DF8047B704780B584B000AF786053
:101F100039600023FB733A6879680020FFF7B0FA54
:101F20000123FB737868FFF7E7FA7868FFF716FB81
:101F3000FB7B0A2B0CD07868FFF770FBFB7B3A68C1
:101F400079681846FFF79CFAFB7B0133FB73E9E7DE
:101F500000BF3A6879680A20FFF792FA00BF10378D
:101F6000BD4680BD80B584B000AF78603960002385
:101F7000FB733A6879680A20FFF782FA0923FB733A
:101F80007868FFF77FFF7868FFF74AFFFB7B3A68C6
:101F900079681846FFF774FAFB7B002B06D0786847
:101FA000FFF7F1FBFB7B013BFB73E9E700BF00BFE1
:101FB0001037BD4680BD80B582B000AF7860396013
:101FC0007B6819463868FFF79FFF00BF0837BD469A
:101FD00080BD80B582B000AF786039607B681946FB
:101FE0003868FFF7BFFF00BF0837BD4680BD80B52A
:101FF000B2B000AFF860B9603B601346FB80FB886D
:1020000003F00F039BB2002B06D0FB8823F00F03D5
:102010009BB210339BB200E0FB88A7F8C230B7F840
:10202000C2301A460021B86806F097FCFB881A46B1
:10203000F968B86806F084FC07F11003396818469F
:10204000FFF710FA0023C7F8C43010E0D7F8C43007
:102050001B011A46BB681A4407F1100311461846C3
:10206000FFF7A9FFD7F8C4300133C7F8C430B7F879
:10207000C2301B099BB21A46D7F8C4309342E5DB45
:10208000B7F8C2301846C837BD4680BD80B5B2B07B
:1020900000AFF860B9603B601346FB80FB8803F03B
:1020A0000F039BB2002B06D0FB8823F00F039BB2DB
:1020B00010339BB200E0FB88A7F8C23007F1100391
:1020C00039681846FFF7CEF90023C7F8C43010E08E
:1020D000D7F8C4301B011A46FB681A4407F11003F5
:1020E00011461846FFF775FFD7F8C4300133C7F81B
:1020F000C430B7F8C2301B099BB21A46D7F8C430B7
:102100009342E5DBFB881A46F968B86806F018FCCC
:1021100000BFC837BD4680BD80B400AF0C4BDB6844
:1021200003F08073002B0ED1094BDB68084A43F0A3
:102130008073D360074B00225A60064B1B68054A28
:1021400043F00103136000BFBD465DF8047B704798
:10215000F0ED00E0001000E080B485B000AF7860E2
:102160000D4B5B68FB600D4B1B680D4AA2FB032304
:102170009A097B6802FB03F3BB6000BF064B5A68F9
:10218000FB68D31ABA689A42F8D800BF00BF143768
:10219000BD465DF8047B7047001000E00C00002095
:1021A000D34D621080B400AF00BF064B5B68002BBC
:1021B00003D0044B9B6A002BF7D100BFBD465DF8EE
:1021C000047B70470040065080B500AFFFF7EAFF80
:1021D000024B0122DA6000BF80BD00BF0040065004
:1021E00080B500AFFFF7DEFF024B0222DA6000BFCE
:1021F00080BD00BF0040065080B400AF034B1B6A97
:102200001846BD465DF8047B704700BF004006508D
:1022100080B586B000AF0A213D2001F0EDFE01211E
:102220003D2001F069F9144A07F10C0307CA83E85D
:1022300007004FF400433B6107F10C03184600F020
:10224000F7FE00F081FF40F2E773BB800523BB710E
:102250000A23FB7101233B7202237B720323BB72AF
:102260003B1D184600F00AF8012000F035FF00BFC2
:102270001837BD4680BD00BF788C000880B584B09B
:1022800000AF7860786800F01BF8F860F86800F03C
:1022900005F800BF1037BD4680BD000080B582B094
:1022A00000AF7860FFF79CFF044A7B681362FFF77A
:1022B0008BFF00BF0837BD4680BD00BF0040065001
:1022C00080B487B000AF78607B681B88A3F2B273DC
:1022D000FB60FB6840F63A02934207D87B689B7824
:1022E000002B03D07B68DB78002B01D100235CE05E
:1022F000FB689B0840F2B55202FB03F37B61FB686D
:1023000003F00303FB60FB6840F26D1202FB03F372
:10231000FA68022A01D9012200E0002213447A69F6
:1023200013447B6100233B6113E0234A3B69134460
:102330001B781A467B6913447B613B69012B05D1ED
:10234000FB68022B02D17B6901337B613B6901335E
:102350003B613B690B2B05D83B6901337A68927866
:102360009342E2D37B68DB781A467B691344013BD6
:102370007B617B69114A02FB03F37B617B681B79FC
:102380001A464FF4616303FB02F27B685B791946DE
:102390000B461B015B1A9B0013447A689279134425
:1023A0001A467B6913447B617B6918461C37BD461E
:1023B0005DF8047B704700BF6C8C00088051010001
:1023C00080B586B000AF7860FFF716FFF860F96857
:1023D0005F4BA3FB01235A0913461B019B1A9B0069
:1023E000CA1AD2B27B689A71FB68594AA2FB0323CE
:1023F0005B09FB60F968564BA3FB01235A0913469E
:102400001B019B1A9B00CA1AD2B27B685A71FB68E7
:102410004F4AA2FB03235B09FB60F9684D4BA3FB0A
:1024200001231A0913465B001344DB00CA1AD2B217
:102430007B681A71FB68474AA2FB03231B09FB60F8
:10244000FB681A1D444BA3FB0213D11A49080B4425
:1024500099080B46DB005B1AD11ACAB27B68DA71A5
:10246000FB683E4AA2FB0323DB099BB29B009BB2A5
:1024700003F2B2739AB27B681A80FB68374AA2FBF8
:102480000312D20940F2B55101FB02F29B1AFB6024
:10249000FB68B3F5896F09D3FB685A1E304BA3FB69
:1024A0000213D21A520813441B0A07E0FA682C4B95
:1024B000A3FB0213D21A520813441B0ABB607B68A9
:1024C0001A88BB689BB213449AB27B681A80BB68B7
:1024D00040F26D1202FB03F3BA68022A01D901220D
:1024E00000E000221344FA68D31AFB6000237B61EA
:1024F00018E01C4A7B6913441B783B617B69012B04
:1025000005D1BB68022B02D13B6901333B61FA68FC
:102510003B699A420AD3FA683B69D31AFB607B692C
:1025200001337B617B690B2BE3D900E000BF7B6942
:10253000DBB20133DAB27B689A70FB68DBB201333D
:10254000DAB27B68DA7000BF1837BD4680BD00BFC5
:1025500089888888ABAAAAAA2549922473B06D16E7
:1025600061F319676C8C000880B483B000AF7860A9
:1025700039607B68DA6C3B68DB431A407B68DA645D
:1025800000BF0C37BD465DF8047B704780B483B054
:1025900000AF786039607B68DA6C3B681A437B680F
:1025A000DA6400BF0C37BD465DF8047B704700005D
:1025B00080B400AF074B586A074B1B685A1C06498A
:1025C0000A60C1B2054AD15400BFBD465DF8047B24
:1025D000704700BF00C00550D40100200C0100204E
:1025E00080B485B000AF786039600023FB810023A0
:1025F000BB600BE07A68BB6813441B789AB2FB8916
:1026000013449BB2FB81BB680133BB603B68BA6873
:102610009A42EFD3B7F90E200C4B83FB02131344FD
:10262000D911D317C91A0B461B025B1AD31A1BB256
:102630009BB2C3F1FF039BB2FB81FB89DBB218465F
:102640001437BD465DF8047B704700BF81808080F1
:1026500080B584B000AF78600B467B800023FB60C0
:102660000AE0FB687A6813441B781946074804F0AF
:1026700099F9FB680133FB607B88FA689A42F0DBCA
:1026800000BF00BF1037BD4680BD00BF00C0055071
:1026900080B584B000AF78600B467B801B4B1B7805
:1026A000DBB21A467B881344C62B29DC174B1B78F8
:1026B000DBB2FB6011E0154B1B78DBB21A46FB68FE
:1026C0009B1A1A467B6813441978114AFB68134415
:1026D0000A461A70FB680133FB600C4B1B78DBB2B7
:1026E0001A467B881344FA689A42E4DB7B88DAB2A4
:1026F000064B1B78DBB21344DAB2044B1A7001E0CC
:10270000FEF7B4FB00BF1037BD4680BDA00200201D
:10271000D801002080B5B6B000AF3B4683E8030087
:10272000FF2387F87030FF2387F871300F2387F875
:10273000723045233B734E237B730023BB7302230C
:10274000FB7301233B7408237B74394607F10C03A8
:1027500006330822184606F0F3F807F10C03063397
:1027600008211846FFF73CFF0346BB7607F17003CC
:10277000D91C07F10C000A4B0F22FFF738FC034667
:10278000A7F8D630B7F8D63003339AB207F1700302
:1027900011461846FFF77CFF00BFD837BD4680BD05
:1027A000848C000880B5B4B000AFFF2387F8683090
:1027B000FF2387F869300F2387F86A3045233B7180
:1027C0004E237B710023BB710223FB7103233B72F9
:1027D00000237B723B1D063300211846FFF700FFE4
:1027E0000346BB7207F16803D91C381D0A4B072248
:1027F000FFF7FDFB0346A7F8CE30B7F8CE30033322
:102800009AB207F1680311461846FFF741FF00BF6F
:10281000D037BD4680BD00BF848C000880B582B033
:1028200000AF0346FB719C4B1B78072B00F22B81FA
:1028300001A252F823F000BF5928000869280008B7
:102840007F28000893280008AB280008FB28000810
:102850005929000883290008FB79472B40F015818E
:102860008D4B01221A7010E1FB79572B03D18A4B53
:1028700002221A700CE1884B00221A7008E1FB79E1
:102880009BB21B029AB2854B1A80834B03221A70AB
:10289000FEE0FB799AB2814B1B8813439AB27F4BBF
:1028A0001A807D4B04221A70F2E07D4AFB79137086
:1028B0007B4B1B78012B13D0794B1B78022B0FD04D
:1028C000774B1B78032B0BD0754B1B78042B07D051
:1028D000734B1B78052B03D0714B1B78062B01D152
:1028E000012300E00023002B03D16B4B00221A7060
:1028F000CEE0694B05221A70CAE06A4AFB79137070
:10290000684B1B78002B03D1634B07221A70BFE082
:10291000644B1B78082B0FD0624B1B78042B0BD019
:10292000604B1B78012B07D05E4B1B78012B03D02B
:102930005C4B1B78042B01D1012300E00023002B0A
:1029400003D1554B00221A70A2E0574B00221A7097
:10295000514B06221A709BE0534B1B785A1CD1B284
:10296000514A11701946514AFB7953544E4B1A780B
:102970004C4B1B789A42C0F08A80474B07221A7052
:1029800085E04B4AFB791370434B00221A70454B8C
:102990001B7819464548FFF723FE03461A46444B69
:1029A0001B789A426BD13E4B1B78033B032B68D8B4
:1029B00001A252F823F000BFC92900083F2A0008ED
:1029C0005F2A0008FD290008384BDB781A06374BD0
:1029D0009B781B041A43354B5B781B021343334A25
:1029E000127813431A46334B1A60324B1B68184651
:1029F000FFF754FC304B01221A7043E02B4B1A783E
:102A00002E4B1A70294B5A782C4B5A70274B9A78B8
:102A10002A4B9A70254BDA78284BDA70234B1A79B7
:102A2000264B1A71214B5A79244B5A711F4B9A79B4
:102A3000224B9A711D4BDA79204BDA7122E0204B40
:102A400001221A701F4B1B681F4A1360174B1A781C
:102A50001E4B1A701B4B5A791D4B1A7012E0184B03
:102A600001221A70174B1B68174A1360154B1A790D
:102A7000164B1A700D4B1A78154B1A7002E000BFF6
:102A800006E000BF04E000BF02E000BF00E000BFBE
:102A900000BF0837BD4680BDA4020020A20200206E
:102AA000A5020020A6020020A8020020AC020020FF
:102AB000A7020020E80200204A030020780000203E
:102AC000430300202003002044030020480300208B
:102AD0004903002080B59AB000AF164B1B68002B4D
:102AE00024D004211448FFF73FFD124B1B689AB213
:102AF0003946124B1248FFF7C9FA00237B6609E0FA
:102B00003A467B6E13441B781846FFF787FE7B6EB0
:102B100001337B667A6E074B1B689A42F0D3054BF4
:102B200000221A6004210448FFF730FD00BF683717
:102B3000BD4680BDD401002000C00550848C000833
:102B40000C01002080B500AF084B1B78DBB2002BD6
:102B50000AD0064B1B78DBB29BB219460448FFF73C
:102B600077FD024B00221A7000BF80BDA00200203A
:102B7000D801002080B500AF1E4B1B68002B03D18D
:102B80001D4B1B681B4A13601B4B1A68194B1B68B3
:102B9000D31A052B08D9184B93E80300FFF7BAFDA9
:102BA000154B1B68134A1360144B1B68002B05D18F
:102BB000124B114A92E8030083E803000F4B5A7945
:102BC0000D4B5B799A4205D10C4B1A790A4B1B7954
:102BD0009A420AD0084B93E80300FFF79BFD074B8E
:102BE000054A92E8030083E80300FFF7ABFF00BF4C
:102BF00080BD00BFEC02002020030020F002002076
:102C000000F066F8104C114DAC420ADA2168626897
:102C1000A3689B00043BA2BFC858D050FAE70C340D
:102C2000F2E70B4B0B4CA34209DA19685A68920081
:102C30000020043AA4BF8850FBE70833F3E7FDF710
:102C4000E3FDFEE7FEE700008C8D0008988D00088C
:102C5000988D0008A08D000880B483B000AF0346B3
:102C6000FB7197F90730002B0BDBFB7903F01F0298
:102C7000074997F907305B09012000FA02F241F891
:102C8000232000BF0C37BD465DF8047B704700BFB2
:102C900000E100E080B483B000AF0346FB7197F918
:102CA0000730002B0CDBFB7903F01F02074997F973
:102CB00007305B09012000FA02F2603341F823205B
:102CC00000BF0C37BD465DF8047B704700E100E0B3
:102CD00080B500AF1D4B1E4A9A601C4BD3F888305C
:102CE0001A4A43F47003C2F888301A4B03F5805334
:102CF0001A464FF480439366174B03F500531A4668
:102D00004FF0FF331366144B03F500531A46134B71
:102D10005366134B02221A60BFF34F8F00BFBFF3FD
:102D20006F8F00BF0020FFF7B5FF0B4B03F500537B
:102D30001A464FF44033D3600020FFF78DFF064B57
:102D40004FF440321A6100BF80BD00BF00ED00E0CB
:102D5000000000080080005000800044F7FF3700AA
:102D6000D0ED00E080B400AF034B1B681846BD46B1
:102D70005DF8047B704700BF0800002080B483B07A
:102D800000AF7860044A7B68136000BF0C37BD4613
:102D90005DF8047B704700BF0800002080B582B05A
:102DA00000AF00237B600E4B1B6F03F00703032B68
:102DB00009D0032B0ED8012B09D0022B0AD1FFF723
:102DC000D1FF786007E0074B1B687B6003E0064B90
:102DD0007B6000E0FEE77B6818460837BD4680BD93
:102DE0000080005000000020002D310180B582B02D
:102DF00000AFFFF7D3FF7860094B1B6F1B0B03F08D
:102E00000F033B603B6801337A68B2FBF3F37B60EE
:102E1000044A7B6813607B6818460837BD4680BD4E
:102E2000008000500C00002080B400AF024B184618
:102E3000BD465DF8047B704700B4C40480B400AFA5
:102E4000034B1B681846BD465DF8047B704700BF06
:102E50000000002080B400AF00231846BD465DF896
:102E6000047B704780B400AF024B1846BD465DF846
:102E7000047B7047002D310180B483B000AF002384
:102E80007B604FF0B4439B681B0C03F01F030C2BBB
:102E90004CD801A252F823F0CD2E00082D2F0008A7
:102EA0002D2F00082D2F00082D2F00082D2F000892
:102EB000092F00080F2F0008152F00082D2F0008DC
:102EC0001B2F0008212F0008272F00084FF0B443C4
:102ED0009B6803F04073B3F1007F0ED0B3F1007F25
:102EE0000ED8002B03D0B3F1807F03D008E0134B42
:102EF0007B6008E0124B7B6005E0124B7B6002E0D8
:102F000000237B6000BF12E00F4B7B600FE00F4B94
:102F10007B600CE00E4B7B6009E00E4B7B6006E0B3
:102F20000D4B7B6003E00D4B7B6000E000BF7B68D6
:102F300018460C37BD465DF8047B704700093D001C
:102F400080841E0040420F00405DC6000024F40053
:102F5000C0EA210180BA8C010048E801005A6202EF
:102F600080B400AF4FF400431846BD465DF8047BC3
:102F7000704780B400AF4FF47A731846BD465DF8D1
:102F8000047B704780B400AF034B1B681846BD46F6
:102F90005DF8047B704700BF0400002080B400AFE0
:102FA00000BF064B5B68002B03D0044B9B6A002BD1
:102FB000F7D100BFBD465DF8047B70470040065066
:102FC00080B500AFFFF7EAFF024B0122DA6000BFD5
:102FD00080BD00BF0040065080B500AFFFF7DEFFA8
:102FE000024B0222DA6000BF80BD00BF00400650E5
:102FF00080B485B000AF78607B68002B03D07B681D
:10300000B3F5004F00BF7B68BB60BB68002B01D1EC
:10301000202303E0BB68B3FA83F3DBB2C3F11F03E1
:10302000FB60FB6818461437BD465DF8047B7047AB
:1030300080B584B000AF78607B685B681846FFF7A6
:10304000D7FFF860234B5B68002B01D0FFF7A6FF8A
:10305000204B03F500531A460123536000BF1D4B5C
:103060005B6803F00203002BF9D1FB681B017A684F
:10307000127A002A01D0022200E0002213437A686B
:103080005278002A01D0012200E0002211491343A6
:103090008B607B685B7A002B01D0022200E000226B
:1030A0007B689B7A002B01D0012300E000230949B3
:1030B00013434B62074B03F580531A4601235360B9
:1030C0007B681B78002B01D0FFF77AFF00BF103719
:1030D000BD4680BD0040065080B582B000AF0346BB
:1030E000FB71184B5B68002B05D1FB7983F0010362
:1030F000DBB2002B21D1134B5B68002B01D0FFF713
:103100004DFFFB79002B06D00E4B03F580531A467A
:103110000123536012E0FFF75FFFFFF73FFF094B0A
:1031200003F500531A460123536000BF054B5B684B
:1031300003F00203002BF9D100E000BF0837BD46C1
:1031400080BD00BF0040065080B500AFFFF744FFD0
:10315000034B00221A62FFF733FF00BF80BD00BFA0
:103160000040065080B500AFFFF740FE034618460A
:1031700080BD80B487B000AFF860B9607A607B68CA
:10318000002B04D0FB6803F580537B6103E0FB68F0
:1031900003F500537B617B690121BA6801FA02F2F1
:1031A0001A6000BF1C37BD465DF8047B704780B4D1
:1031B00083B000AF786039607B681A683B6822FA98
:1031C00003F303F0010318460C37BD465DF8047B9A
:1031D0007047000080B500AF00BF04210448FFF72E
:1031E000E6FF0346002BF8D100BF00BF80BD00BF43
:1031F0008440005080B500AFFFF7ECFF044BD3F8DC
:1032000084309B0903F00303DBB2184680BD00BF86
:103210000040005080B400AF054B5B6A044A43F0A5
:103220000103536200BFBD465DF8047B704700BFD9
:1032300000C0075080B400AF054B5B6A044A23F01E
:103240000103536200BFBD465DF8047B704700BFB9
:1032500000C0075080B400AF064BDB6903F4803335
:10326000002B14BF01230023DBB21846BD465DF8D6
:10327000047B70470000035080B400AF034B002272
:10328000DA6300BFBD465DF8047B70470000035061
:1032900080B400AF044B41F67132DA6300BFBD4623
:1032A0005DF8047B704700BF0000035080B400AF9E
:1032B000034B5B681846BD465DF8047B704700BF52
:1032C0000000035080B483B000AF7860044A7B688C
:1032D000536000BF0C37BD465DF8047B704700BFEC
:1032E0000000035080B485B000AF78600023FB601D
:1032F0007B68B3F5607F21D07B68B3F5607F34D8FD
:103300007B68B3F5207F29D07B68B3F5207F2CD86C
:103310007B68B3F5007F19D07B68B3F5007F24D8B4
:103320007B68002B03D07B68B3F5C07F1DD1134BA6
:103330001B6F1B0B03F00F03FB6017E00F4BD3F861
:1033400080301B0903F00303FB600FE00B4BD3F845
:1033500090301B0E03F01F03FB6007E0074B1B6F51
:103360009B0A03F00103FB6000E000BFFB68013330
:1033700018461437BD465DF8047B70470080005046
:1033800090B585B000AF786039607B68B3F5607F39
:103390004FD07B68B3F5607F00F2A3807B68B3F504
:1033A000207F00F08D807B68B3F5207F00F299804C
:1033B0007B68B3F5007F70D07B68B3F5007F00F2C7
:1033C00090807B68002B04D07B68B3F5C07F40F011
:1033D00088803B68012B0AD03B68022B07D03B68F2
:1033E000042B04D03B68082B01D03B68102B00BF96
:1033F00002F008F902F09EF801F090FD3C4B1B6FC3
:1034000023F470423B68013B1B03394913430B67AC
:10341000FFF7A8FE0446FFF7EDFE0346C3F10203E3
:103420001946204601F0E6FB02F08EF801F086FD19
:103430005AE0304BDB6803F08073002B14BF01238C
:103440000023FB73FB7B002B05D02A4BDB68294A4A
:1034500023F08073D3603B68012B07D03B68022BBD
:1034600004D03B68032B01D03B68042B00BF204BEA
:10347000D3F8803023F030023B68013B1B011C492C
:103480001343C1F88030FB7B002B2CD0194BDB6839
:10349000184A43F08073D36025E03B68002B02D0CC
:1034A0003B68202B00BF124BD3F8903023F0F8522A
:1034B0003B68013B1B060E491343C1F8903013E0F3
:1034C0003B68012B01D03B68022B00BF084B1B6FF0
:1034D00023F480623B68013B9B02054913430B6761
:1034E00002E000BF00E000BF00BF1437BD4690BD42
:1034F00000800050F0ED00E080B584B000AF78604F
:103500000B46FB700023FB607B685B09002B0CD033
:103510007B685B09012B02D10B4BFB6005E07B68EC
:103520005B09022B01D1094BFB607B6803F01F0391
:10353000BB60FB781A46B968F868FFF71AFE00BF4F
:103540001037BD4680BD00BF6480005068800050C9
:1035500090B585B000AF78600023FB600023BB60AE
:103560007B68B3F5486F00F035837B68B3F5486F2F
:1035700000F245837B68B3F5406F00F0F3827B680F
:10358000B3F5406F00F23B837B68B3F5286F00F022
:1035900028837B68B3F5286F00F231837B68B3F52D
:1035A000206F00F010837B68B3F5206F00F2278353
:1035B0007B68B3F5106F00F0F8827B68B3F5106F8D
:1035C00000F21D837B68B3F5F06F00F011837B6818
:1035D000B3F5F06F00F213837B68B3F5E06F00F092
:1035E000EB827B68B3F5E06F00F209837B68B3F58B
:1035F000D06F00F0D3827B68B3F5D06F00F2FF820A
:103600007B68B3F5C06F00F0C2827B68B3F5C06F12
:1036100000F2F5827B68B3F5B06F00F0AA827B6898
:10362000B3F5B06F00F2EB827B68B3F5A06F00F0EA
:1036300092827B68B3F5A06F00F2E1827B68B3F5FC
:10364000806F00F081827B68B3F5806F00F2D782D3
:103650007B68B3F5607F00F067827B68B3F5607FBD
:1036600000F2CD827B68B3F5407F00F050827B682A
:10367000B3F5407F00F2C3827B68B3F5207F00F092
:103680003A827B68B3F5207F00F2B9827B68B3F59C
:10369000007F00F024827B68B3F5007F00F2AF82E8
:1036A0007B68B3F5807F00F20B827B68B3F5807F87
:1036B00000F2A58201A252F823F000BFD53A00081B
:1036C000FF3B0008FF3B0008FF3B0008FF3B0008F2
:1036D000FF3B0008FF3B0008FF3B0008FF3B0008E2
:1036E000FF3B0008FF3B0008FF3B0008FF3B0008D2
:1036F000FF3B0008FF3B0008FF3B0008FF3B0008C2
:10370000FF3B0008FF3B0008FF3B0008FF3B0008B1
:10371000FF3B0008FF3B0008FF3B0008FF3B0008A1
:10372000FF3B0008FF3B0008FF3B0008FF3B000891
:10373000FF3B0008FF3B0008FF3B0008D53A0008AC
:10374000F73A0008D53A0008F73A0008493B000864
:10375000493B0008493B0008493B0008493B000839
:10376000F73A0008733B00080F3B00088F3B000846
:103770009D3B00080F3B0008F73A0008F73A0008A5
:10378000F73A0008FF3B0008FF3B0008FF3B00083A
:10379000FF3B0008FF3B0008FF3B0008FF3B000821
:1037A000FF3B0008F73A0008F73A0008F73A00082C
:1037B000F13B0008B93B0008F73A0008FF3B00085E
:1037C000FF3B0008FF3B0008FF3B0008FF3B0008F1
:1037D000FF3B0008FF3B0008FF3B0008FF3B0008E1
:1037E000FF3B0008FF3B0008FF3B0008FF3B0008D1
:1037F000493B0008D53A0008D53A0008D53A0008F8
:10380000AB3B00080F3B00080F3B0008C73B00081C
:10381000E33B0008573B0008653B0008FF3B0008FE
:10382000FF3B0008FF3B0008FF3B0008FF3B000890
:10383000D53B0008D53A0008FF3B0008FF3B0008D5
:10384000FF3B0008FF3B0008FF3B0008FF3B000870
:10385000FF3B0008FF3B0008FF3B0008FF3B000860
:10386000FF3B0008FF3B0008FF3B0008FF3B000850
:10387000FF3B0008FF3B0008FF3B0008FF3B000840
:10388000FF3B0008FF3B0008FF3B0008FF3B000830
:10389000FF3B0008FF3B0008FF3B0008FF3B000820
:1038A000FF3B0008FF3B0008FF3B0008FF3B000810
:1038B000FF3B0008FF3B0008FF3B0008CB3A000835
:1038C000FF3B0008FF3B0008FF3B0008FF3B0008F0
:1038D000FF3B0008FF3B0008FF3B0008FF3B0008E0
:1038E000FF3B0008FF3B0008FF3B0008FF3B0008D0
:1038F000FF3B0008FF3B0008FF3B0008FF3B0008C0
:10390000FF3B0008FF3B0008FF3B0008FF3B0008AF
:10391000FF3B0008FF3B0008FF3B0008FF3B00089F
:10392000FF3B0008FF3B0008FF3B0008FF3B00088F
:10393000FF3B0008FF3B0008FF3B0008FF3B00087F
:10394000FF3B0008FF3B0008FF3B0008FF3B00086F
:10395000FF3B0008FF3B0008FF3B0008FF3B00085F
:10396000FF3B0008FF3B0008FF3B0008FF3B00084F
:10397000FF3B0008FF3B0008FF3B0008FF3B00083F
:10398000FF3B0008FF3B0008FF3B0008FF3B00082F
:10399000FF3B0008FF3B0008FF3B0008FF3B00081F
:1039A000FF3B0008FF3B0008FF3B0008FF3B00080F
:1039B000FF3B0008FF3B0008FF3B0008FF3B0008FF
:1039C000FF3B0008FF3B0008FF3B0008FF3B0008EF
:1039D000FF3B0008FF3B0008FF3B0008FF3B0008DF
:1039E000FF3B0008FF3B0008FF3B0008FF3B0008CF
:1039F000FF3B0008FF3B0008FF3B0008FF3B0008BF
:103A0000FF3B0008FF3B0008FF3B0008FF3B0008AE
:103A1000FF3B0008FF3B0008FF3B0008FF3B00089E
:103A2000FF3B0008FF3B0008FF3B0008FF3B00088E
:103A3000FF3B0008FF3B0008FF3B0008FF3B00087E
:103A4000FF3B0008FF3B0008FF3B0008FF3B00086E
:103A5000FF3B0008FF3B0008FF3B0008FF3B00085E
:103A6000FF3B0008FF3B0008FF3B0008FF3B00084E
:103A7000FF3B0008FF3B0008FF3B0008FF3B00083E
:103A8000FF3B0008FF3B0008FF3B0008FF3B00082E
:103A9000FF3B0008FF3B0008FF3B0008FF3B00081E
:103AA000FF3B0008FF3B0008FF3B0008FF3B00080E
:103AB000FF3B0008FF3B0008FF3B0008813B00087C
:103AC0007B68B3F5C07F05D099E0FFF767F903463F
:103AD000FB6095E0FFF78AF90346FB6090E0FFF793
:103AE0005DF904464FF40070FFF7FCFB0346B4FB9E
:103AF000F3F3FB6084E0FFF779F904464FF420709C
:103B0000FFF7F0FB0346B4FBF3F3FB6078E0FFF74D
:103B10006DF904464FF42070FFF7E4FB0346B4FB55
:103B2000F3F35B08FB606BE007F108030021184624
:103B300001F01AFABC684FF46070FFF7D3FB03463C
:103B4000B4FBF3F3FB605BE007F10C0300211846C4
:103B500001F08AFA54E007F10C030021184601F045
:103B60005FF84DE007F10C030021184601F0AAF8B8
:103B700046E007F10C030021184601F099FC3FE0F4
:103B800007F10C030021184601F0E4FD38E007F1CD
:103B90000C030021184601F0C3FA31E007F10C03D1
:103BA0000021184601F03AFD2AE007F10C0300213C
:103BB000184601F081FD23E007F10C0300211846AF
:103BC00001F0DCFC1CE007F10C030021184601F0B9
:103BD000D1F815E007F10C030021184601F01AF99D
:103BE0000EE007F10C030021184601F063F907E02D
:103BF00007F10C030021184601F0D6FA00E000BFDF
:103C0000FB6818461437BD4690BD00BF80B584B030
:103C100000AF78600023FB607B68B3F5486F00F06D
:103C2000D4817B68B3F5486F00F2DD817B68B3F522
:103C3000406F00F0B5817B68B3F5406F00F2D3812F
:103C40007B68B3F5286F00F0C7817B68B3F5286FF8
:103C500000F2C9817B68B3F5206F00F0AF817B680B
:103C6000B3F5206F00F2BF817B68B3F5106F00F0F1
:103C70007B817B68B3F5106F00F2B5817B68B3F58B
:103C8000086F00F078817B68B3F5086F00F2AB81B4
:103C90007B68B3F5F06F00F059817B68B3F5F06F86
:103CA00000F2A1817B68B3F5E06F00F080817B6852
:103CB000B3F5E06F00F297817B68B3F5D06F00F049
:103CC0004C817B68B3F5D06F00F28D817B68B3F5D2
:103CD000C06F00F034817B68B3F5C06F00F2838160
:103CE0007B68B3F5B06F00F015817B68B3F5B06FFA
:103CF00000F279817B68B3F5A06F00F04A817B68A0
:103D0000B3F5A06F00F26F817B68B3F5806F00F0B0
:103D100008817B68B3F5806F00F265817B68B3F53D
:103D2000607F00F02F817B68B3F5607F00F25B81DC
:103D30007B68802B00F2C6807B68242BC0F0538107
:103D40007B68243B5C2B00F24E8101A252F823F0E9
:103D5000233F0008233F0008233F0008233F0008BB
:103D6000233F0008E73F0008153F0008E73F000831
:103D70003F3F00085B3F0008E73F0008E73F0008BF
:103D8000E73F0008E73F0008E73F0008E73F00087B
:103D9000E73F0008E73F0008E73F0008E73F00086B
:103DA000E73F0008E73F0008E73F0008E73F00085B
:103DB000E73F00084D3F0008AF3F0008E73F00081D
:103DC000E73F0008E73F0008E73F0008E73F00083B
:103DD000E73F0008E73F0008E73F0008E73F00082B
:103DE000E73F0008E73F0008E73F0008E73F00081B
:103DF000E73F0008233F0008E73F0008E73F0008CF
:103E0000E73F0008693F0008E73F0008E73F000878
:103E1000BD3F0008D93F0008933F0008A13F0008BC
:103E2000E73F0008E73F0008E73F0008E73F0008DA
:103E3000E73F0008CB3F0008E73F0008E73F0008E6
:103E4000E73F0008E73F0008E73F0008E73F0008BA
:103E5000E73F0008E73F0008E73F0008E73F0008AA
:103E6000E73F0008E73F0008E73F0008E73F00089A
:103E7000E73F0008E73F0008E73F0008E73F00088A
:103E8000E73F0008E73F0008E73F0008E73F00087A
:103E9000E73F0008E73F0008E73F0008E73F00086A
:103EA000E73F0008E73F0008E73F0008E73F00085A
:103EB000E73F0008E73F0008E73F0008E73F00084A
:103EC000CF3E00087B68B3F5807F31D08BE0494B53
:103ED0001B6F03F00703013B032B17D801A252F815
:103EE00023F000BF073F0008F53E0008FB3E000836
:103EF000013F00080523FB600BE00323FB6008E0A3
:103F00000823FB6005E00223FB6002E00023FB6066
:103F100000BF69E007F10C031946002001F0C8FA60
:103F200062E007F10C031946002001F09DF85BE008
:103F300007F10C031946002001F00CFC54E007F1D6
:103F40000C031946002001F0EBF84DE007F10C03DB
:103F50001946002001F028F946E007F10C03194644
:103F6000002001F05BFB3FE007F10C031946002045
:103F700001F0A2FB38E007F10C031946002001F024
:103F80002FF831E007F10C031946002000F0ECFF98
:103F90002AE007F10C031946002000F041FE23E05F
:103FA00007F10C031946002000F08CFE1CE007F11D
:103FB0000C031946002001F0E1FA15E007F10C03AB
:103FC0001946002000F0D6FE0EE007F10C0319465A
:103FD000002000F01FFF07E007F10C031946002046
:103FE00000F068FF00E000BFFB6818461037BD46D0
:103FF00080BD00BF0080005090B585B000AF7860F4
:1040000039600023FB600023FB720023BB727B68D6
:10401000B3F5486F00F0E8847B68B3F5486F00F2B1
:104020003B857B68B3F5406F00F031847B68B3F566
:10403000406F00F231857B68B3F5286F00F014857E
:104040007B68B3F5286F00F227857B68B3F5206F96
:1040500000F08A847B68B3F5206F00F21D857B68D1
:10406000B3F5106F00F01D837B68B3F5106F00F29D
:1040700013857B68B3F5086F00F053837B68B3F555
:10408000086F00F209857B68B3F5F06F00F090824D
:104090007B68B3F5F06F00F2FF847B68B3F5E06FE7
:1040A00000F02A847B68B3F5E06F00F2F5847B684A
:1040B000B3F5D06F00F0B4827B68B3F5D06F00F237
:1040C000EB847B68B3F5C06F00F034827B68B3F596
:1040D000C06F00F2E1847B68B3F5B06F00F07081CF
:1040E0007B68B3F5B06F00F2D7847B68B3F5A06F3F
:1040F00000F086837B68B3F5A06F00F2CD847B6807
:10410000B3F5806F00F07E817B68B3F5806F00F2BD
:10411000C3847B68B3F5607F00F034837B68B3F5BC
:10412000607F00F2B9847B68802B00F2C7807B68D7
:10413000242BC0F0B1847B68243B5C2B00F2AC8460
:1041400001A252F823F000BF05440008054400080E
:10415000054400080544000805440008994A000881
:10416000C1430008994A0008354500082146000867
:10417000994A0008994A0008994A0008994A000893
:10418000994A0008994A0008994A0008994A000883
:10419000994A0008994A0008994A0008994A000873
:1041A000994A0008994A0008994A0008B145000850
:1041B000F9480008994A0008994A0008994A0008F5
:1041C000994A0008994A0008994A0008994A000843
:1041D000994A0008994A0008994A0008994A000833
:1041E000994A0008994A0008994A000805440008BD
:1041F000994A0008994A0008994A0008A34600080D
:10420000994A0008994A000869490008694A000863
:10421000014800088F480008994A0008994A000898
:10422000994A0008994A0008994A0008E949000893
:10423000994A0008994A0008994A0008994A0008D2
:10424000994A0008994A0008994A0008994A0008C2
:10425000994A0008994A0008994A0008994A0008B2
:10426000994A0008994A0008994A0008994A0008A2
:10427000994A0008994A0008994A0008994A000892
:10428000994A0008994A0008994A0008994A000882
:10429000994A0008994A0008994A0008994A000872
:1042A000994A0008994A0008994A0008994A000862
:1042B000994A0008994A0008C94200087B68B3F58A
:1042C000807F00F0D680E7E33B68023B062B34D8C2
:1042D00001A252F823F000BF35430008FB4200085A
:1042E0003B430008F54200083B4300083B430008FD
:1042F0002F4300080223FB6020E00323FB60A94B4F
:1043000003F580531A464FF480135366A64B9B6AFD
:1043100003F08073002B14BF01230023FB72A24B18
:1043200003F580531A464FF48033936206E004236A
:10433000FB6003E00123FB6000E000BF01210220DD
:1043400001F0D0FA01F05EF901F0F4F800F0E6FDBA
:10435000944B1B6F23F007029249FB6813430B67D2
:10436000FEF700FF0446FEF745FF0346C3F10203D4
:104370001946204600F03EFC0121002001F086FA9B
:1043800001F0E2F800F0DAFDFB7A83F00103DBB222
:10439000002B11D03B68032B10D1834B03F5005346
:1043A0001A464FF48033936200BF7F4B9B6D03F03E
:1043B0008043002BF9D102E000BF70E300BF6EE341
:1043C0003B68102B09D03B68102B0FD83B68022BA1
:1043D00009D03B68072B03D008E00123FB6006E00F
:1043E0000323FB6003E00223FB6000E000BF6D4B92
:1043F000D3F8803123F003026A49FB681343C1F804
:1044000080314CE33B68013B062B26D801A252F8D1
:1044100023F000BF49440008434400083744000823
:1044200055440008314400084F4400083D4400084A
:104430000123FB6012E00223FB600FE00423FB601A
:104440000CE00323FB6009E00023FB6006E005238A
:10445000FB6003E00623FB6000E000BF514BD3F894
:10446000203123F007024F49FB681343C1F8203184
:1044700015E33B68093B082B5AD801A252F823F0F8
:10448000A5440008A544000831450008A5440008DB
:10449000EB4400083145000831450008314500086B
:1044A000A54400083F4B5B6E03F48033002B0CBF28
:1044B00001230023BB723B4B03F580531A464FF494
:1044C00080335366FEF7A6FEBB7A002B06D0354B31
:1044D00003F500531A464FF480335366334B1B6881
:1044E000324A23F00403136023E02E4B5B6E03F487
:1044F0008033002B0CBF01230023BB72294B03F533
:1045000080531A464FF480335366FEF793FEBB7A0E
:10451000002B06D0234B03F500531A464FF480338B
:104520005366224B1B68214A43F00403136000E0EA
:1045300000BFB4E23B68013B0B2B27D801A252F825
:1045400023F000BF874500088D4500088D45000811
:104550008D4500088D4500088D4500088D450008F3
:104560008D4500087B450008754500087545000825
:10457000814500080123FB6009E00223FB6006E09F
:104580000323FB6003E00023FB6000E000BF054B5A
:10459000D3F8403123F003020249FB681343C1F80A
:1045A00040317CE2008000500040005A10E000E002
:1045B0003B68013B0B2B27D801A252F823F000BF28
:1045C0000346000809460008094600080946000895
:1045D000094600080946000809460008094600087F
:1045E000F7450008F1450008F1450008FD450008C1
:1045F0000123FB6009E00223FB6006E00323FB606C
:1046000003E00023FB6000E000BFB34BD3F8603150
:1046100023F00302B049FB681343C1F860313EE266
:104620003B68013B0E2B30D801A252F823F000BFAB
:10463000854600088B4600088B4600088B4600081C
:104640008B4600088B4600088B4600088B46000806
:10465000734600086D4600086D460008794600085C
:104660008B4600088B4600087F4600080123FB604C
:104670000CE00223FB6009E00323FB6006E0042357
:10468000FB6003E00023FB6000E000BF924BD3F827
:10469000003223F007029049FB681343C1F800324F
:1046A000FDE13B68013B0E2B2FD801A252F823F00D
:1046B000054700080B4700080B4700080B47000898
:1046C0000B4700080B4700080B4700080B47000882
:1046D000F3460008ED460008ED460008F9460008DC
:1046E0000B4700080B470008FF4600080123FB604A
:1046F0000CE00223FB6009E00323FB6006E00423D7
:10470000FB6003E00023FB6000E000BF724BD3F8C6
:10471000083223F007027049FB681343C1F80832DE
:10472000BDE13B68013B082B20D801A252F823F0E1
:10473000674700086D470008554700086D470008A7
:104740006D4700086D4700086D4700086147000885
:104750005B4700080123FB6009E00223FB6006E0E1
:104760000323FB6003E00023FB6000E000BF5A4B23
:10477000D3F8003123F003025749FB681343C1F813
:1047800000318CE1554BDB6803F08073002B14BFC4
:10479000012300237B727B7A002B05D04F4BDB6813
:1047A0004E4A23F08073D3603B680E2B09D03B68E0
:1047B0000E2B0FD83B68062B06D03B68072B06D084
:1047C00008E00123FB6006E00323FB6003E0022313
:1047D000FB6000E000BF404BD3F8803023F00302C1
:1047E0003D49FB681343C1F880307B7A002B00F011
:1047F00055813A4BDB68394A43F08073D3604DE111
:104800003B68013B112B36D801A252F823F000BFC0
:104810007148000877480008774800087748000882
:1048200077480008774800085F4800087748000884
:104830006B4800086548000865480008774800088C
:10484000774800087748000877480008774800084C
:1048500077480008594800080123FB600CE0022358
:10486000FB6009E00323FB6006E00423FB6003E038
:104870000023FB6000E000BF174BD3F8203223F089
:1048800007021549FB681343C1F8203207E13B6872
:10489000023B052B24D801A252F823F0C748000898
:1048A000CD480008D3480008B5480008BB480008B8
:1048B000C14800080123FB6013E00523FB6010E002
:1048C0000423FB600DE00323FB600AE00223FB608E
:1048D00007E00623FB6004E000800050F0ED00E0FC
:1048E00000BF714BD3F8283123F007026E49FB68F3
:1048F0001343C1F82831D2E03B68013B0B2B27D88A
:1049000001A252F823F000BF4B49000851490008AA
:10491000514900085149000851490008514900080F
:1049200051490008514900083F4900083949000829
:1049300039490008454900080123FB6009E00223CA
:10494000FB6006E00323FB6003E00023FB6000E064
:1049500000BF554BD3F8403223F003025249FB68A5
:104960001343C1F840329AE03B68023B0F2B2FD82B
:1049700001A252F823F000BFB9490008D14900084C
:10498000D1490008D1490008D1490008BF490008B1
:10499000D1490008D1490008D1490008D14900088F
:1049A000D1490008D1490008D1490008D14900087F
:1049B000C5490008CB4900080323FB6009E0042334
:1049C000FB6006E00123FB6003E00223FB6000E0E4
:1049D00000BF354BD3F8603223F007023249FB6841
:1049E0001343C1F860325AE03B68023B0F2B2FD8CB
:1049F00001A252F823F000BF394A0008514A0008CA
:104A0000514A0008514A0008514A00083F4A00082C
:104A1000514A0008514A0008514A0008514A00080A
:104A2000514A0008514A0008514A0008514A0008FA
:104A3000454A00084B4A00080323FB6009E00423B1
:104A4000FB6006E00123FB6003E00223FB6000E063
:104A500000BF154BD3F8943223F007021249FB68CC
:104A60001343C1F894321AE03B68112B03D03B6822
:104A7000152B03D005E00123FB6002E00223FB605D
:104A800000BF094BD3F8703223F003020649FB68DC
:104A90001343C1F8703202E000BF00E000BF00BF66
:104AA0001437BD4690BD00BF0080005080B588B06F
:104AB00000AF7860786800F01FFCF861FB69002B9C
:104AC00003D0FB69B3F1FF3F00BF454B03F58053B3
:104AD0001A464FF4C0235366424B5B68012B0CD13E
:104AE000404B03F500531A460123536000BF3D4B72
:104AF0005B6803F00203002BF9D18020FFF786F8F2
:104B00000346052B05D100F07DFD00F013FD00F0FC
:104B100005FAFB6923F04073FB617B68324A9342DC
:104B200004D07B68314A934205D009E0FB6943F029
:104B30000073FB6104E0FB6943F08073FB6100BF1D
:104B4000FEF710F9B8617A68BB699A4203D901216E
:104B5000786800F09BFE00BF254BDB6803F006037E
:104B6000002BF9D1224B9B687B61214AFB69936042
:104B7000FB6903F4F8133B611D4B9B6803F4F813C6
:104B8000FB603A69FB689A4203D17868FEF7F6F851
:104B900004E0174A7B699360BB697B608020FFF764
:104BA00035F80346052B0FD1FEF7DCFAB860FEF7A7
:104BB00021FB0346C3F102031946B86800F01AF856
:104BC00000F0C2FC00F0BAF97A68BB699A4203D8D7
:104BD0000121002000F05AFE00BF2037BD4680BDF5
:104BE0000080005000C0015040420F0080841E0031
:104BF0000000015080B582B000AF786039603B683A
:104C0000002B04DD0121786800F040FB03E0002167
:104C1000786800F03BFB00BF0837BD4680BD000050
:104C200080B584B000AF786039600023BB60244B4E
:104C3000D3F8203203F00703042B2ED801A252F838
:104C400023F000BF954C0008594C00086B4C00083D
:104C5000794C0008874C000807F10803002118462A
:104C600000F030F81223FB601AE0FEF705F9034666
:104C7000BB600723FB6013E0FEF772F90346BB60DD
:104C80000A23FB600CE0FEF77DF90346BB600923B5
:104C9000FB6005E00123FB6002E00023FB6000BF36
:104CA0007B68002B02D0BA687B681A603B68002BD7
:104CB00002D03B68FA681A6000BF1037BD4680BD5D
:104CC0000080005080B584B000AF78603960002368
:104CD000FB60274BD3F8283103F00703013B052B7A
:104CE00032D801A252F823F0014D0008254D0008EA
:104CF0003D4D0008194D00080D4D0008314D0008CC
:104D0000FEF730F8F8600523BB6020E0FEF72AF8D4
:104D1000F8600623BB601AE0FEF7AEF8F8600723E0
:104D2000BB6014E0FEF78AF8F8600323BB600EE076
:104D3000FEF784F8F8600423BB6008E0FEF792F801
:104D4000F8600223BB6002E00023BB6000BF7B6809
:104D5000002B02D07B68FA681A603B68002B02D0F7
:104D60003B68BA681A6000BF1037BD4680BD00BFFF
:104D70000080005080B584B000AF786039600023B7
:104D8000BB60234BD3F8603203F00703013B032BD6
:104D90002AD801A252F823F0A94D0008BB4D000803
:104DA000DB4D0008CD4D000807F10803002118462F
:104DB00000F05AF91023FB6019E007F10803002105
:104DC000184600F0ADF91123FB6010E0FEF754F82F
:104DD0000346BB600723FB6009E0FEF743F8034688
:104DE000BB600223FB6002E00023FB6000BF7B6826
:104DF000002B02D0BA687B681A603B68002B02D097
:104E00003B68FA681A6000BF1037BD4680BD00BF1E
:104E10000080005080B584B000AF78603960002316
:104E2000BB60234BD3F8943203F00703013B032B01
:104E30002AD801A252F823F0494E00085B4E000820
:104E40007B4E00086D4E000807F10803002118464C
:104E500000F00AF91023FB6019E007F108030021B4
:104E6000184600F05DF91123FB6010E0FEF704F82E
:104E70000346BB600723FB6009E0FDF7F3FF034631
:104E8000BB600223FB6002E00023FB6000BF7B6885
:104E9000002B02D0BA687B681A603B68002B02D0F6
:104EA0003B68FA681A6000BF1037BD4680BD00BF7E
:104EB0000080005080B584B000AF78603960002376
:104EC000BB60154BD3F8703203F00303012B02D003
:104ED000022B09D00DE007F108030021184600F06D
:104EE0001FF91123FB6007E00023BB601523FB6063
:104EF00002E00023FB6000BF7B68002B02D0BA6891
:104F00007B681A603B68002B02D03B68FA681A6025
:104F100000BF1037BD4680BD0080005080B400AF98
:104F2000054B03F580531A464FF48033136700BFD7
:104F3000BD465DF8047B70470080005080B500AF2F
:104F40008020FEF705FB0346054A934206D8054B31
:104F500003F500531A464FF48033136700BF80BD3A
:104F6000005A62020080005080B584B000AF7860C3
:104F700039600023FB60194BD3F8803003F0030342
:104F8000032B12D0032B16D8012B02D0022B06D0F4
:104F900011E0FDF703FFF8600E23BB600EE0FDF7A4
:104FA0006BFFF8600723BB6008E0FDF7DBFEF860ED
:104FB0000623BB6002E00023BB6000BF7B68002BC0
:104FC00002D07B68FA681A603B68002B02D03B680D
:104FD000BA681A6000BF1037BD4680BD008000501F
:104FE00080B584B000AF786039600023FB601D4B52
:104FF000D3F8003103F00303032B20D801A252F8A9
:1050000023F000BF39500008155000082150000857
:105010002D500008FDF712FFF8600323BB6011E07C
:10502000FDF7B0FFF8600923BB600BE0FDF712FF4E
:10503000F8600823BB6005E00123BB6002E00023A9
:10504000BB6000BF7B68002B02D07B68FA681A60E7
:105050003B68002B02D03B68BA681A6000BF10376B
:10506000BD4680BD0080005080B584B000AF786040
:1050700039600023FB60294BD3F8203103F007038C
:10508000062B38D801A252F823F000BFD9500008EF
:10509000A9500008B5500008CD500008C1500008C4
:1050A000DF500008EB500008FDF75CFEF8600523B8
:1050B000BB6023E0FDF7C2FEF8600323BB601DE088
:1050C000FDF7DAFEF8600723BB6017E0FDF7CAFEC4
:1050D000F8600223BB6011E00123BB600EE0FDF726
:1050E00041FEF8600623BB6008E0FDF7A7FEF8600C
:1050F0000423BB6002E00023BB6000BF7B68002B81
:1051000002D07B68FA681A603B68002B02D03B68CB
:10511000BA681A6000BF1037BD4680BD00800050DD
:1051200080B584B000AF786039600023FB601D4B10
:10513000D3F8403103F00303032B20D801A252F827
:1051400023F000BF79510008555100086151000853
:105150006D510008FDF704FFF8600A23BB6011E001
:10516000FDF710FFF8600923BB600BE0FDF701FFBE
:10517000F8600C23BB6005E00123BB6002E0002364
:10518000BB6000BF7B68002B02D07B68FA681A60A6
:105190003B68002B02D03B68BA681A6000BF10372A
:1051A000BD4680BD0080005080B584B000AF7860FF
:1051B00039600023FB601D4BD3F8603103F003031B
:1051C000032B20D801A252F823F000BF015200089F
:1051D000DD510008E9510008F5510008FDF7C0FE57
:1051E000F8600A23BB6011E0FDF7CCFEF8600923EC
:1051F000BB600BE0FDF7BDFEF8600C23BB6005E073
:105200000123BB6002E00023BB6000BF7B68002B72
:1052100002D07B68FA681A603B68002B02D03B68BA
:10522000BA681A6000BF1037BD4680BD00800050CC
:1052300080B485B000AF786039604FF44013FB60F4
:105240003B68002B0AD17B680E4A934203D94FF486
:105250008013FB600FE00023FB600CE03B68002B39
:1052600009DD7B68084A934203D94FF48013FB6041
:1052700001E00023FB60FB6818461437BD465DF86B
:10528000047B7047005A6202002D310180B584B062
:1052900000AF78603960174B03F580531A464FF41E
:1052A000803393660020FEF71DF802467B6802FB00
:1052B00003F37B60FDF7CEFF0346FB73FDF7E8FFCA
:1052C000FDF7F4FF034623F44013BB6039687868A8
:1052D000FFF7AEFF0246BB681343BB60B868FDF73B
:1052E000F1FFFB7B002B01D0FDF7C6FF00BF10379D
:1052F000BD4680BD0080005080B485B000AF7860AE
:105300000023FB607B685B4A934200F0A3807B68CC
:10531000584A934200F2A3807B68574A934200F0B8
:1053200094807B68544A934200F299807B68534A88
:10533000934200F085807B68504A934200F28F8050
:105340007B684F4A934276D07B684D4A934200F285
:1053500086807B684B4A934268D07B68494A934277
:105360007DD87B68484A93425BD07B68464A93422B
:1053700075D87B68454A93424ED07B68434A934236
:105380006DD87B68424A934242D07B68404A934240
:1053900065D87B683F4A934236D07B683D4A93424A
:1053A0005DD87B683C4A93422AD07B683A4A934254
:1053B00055D87B68394A93421ED07B68374A93425E
:1053C0004DD87B68364A934212D07B68344A934268
:1053D00045D87B68334A93420AD07B68314A93426E
:1053E0003DD87B68002B3CD07B682F4A934236D156
:1053F0002E4B9B6DFB6035E02C4B5B6EFB6031E010
:105400002A4B1B6FFB602DE0284B5B6FFB6029E094
:10541000264B9B6FFB6025E0244BD3F88030FB606C
:1054200020E0224BD3F88430FB601BE01F4BD3F805
:105430008830FB6016E01D4BD3F88C30FB6011E028
:105440001A4BD3F89030FB600CE0184BD3F8943033
:10545000FB6007E0154BD3F89830FB6002E000BF1B
:1054600000E000BFFB6818461437BD465DF8047BBA
:10547000704700BF00B4C4040090D003007E560300
:10548000006CDC0280D543020048E80180BA8C0140
:10549000C0EA21010024F400405DC600C0CF6A00CC
:1054A00000093D0080841E0040420F000080E00F94
:1054B00080B584B000AF786039600023BB601C4BBE
:1054C000D3F8803103F00303032B0FD0032B1BD839
:1054D000012B02D0022B10D016E007F108030021A7
:1054E0001846FFF7C1FD1023FB6010E0FDF7C4FC78
:1054F0000346BB600723FB6009E0FDF7B3FC0346EE
:10550000BB600223FB6002E00023FB6000BF7B68FE
:10551000002B02D0BA687B681A603B68002B02D06F
:105520003B68FA681A6000BF1037BD4680BD00BFF7
:105530000080005080B500AF02214FF42070FDF7CD
:105540001FFF00BF80BD000080B582B000AF022306
:105550007B604FF4C070FDF7FBFF0346064A9342A1
:1055600001D801237B6079684FF42070FDF708FFB4
:1055700000BF0837BD4680BD80F0FA0280B584B018
:1055800000AF786039600023FB601D4BD3F84032D8
:1055900003F00303032B20D801A252F823F000BF2D
:1055A000D5550008B1550008BD550008C95500087B
:1055B000FDF7D6FCF8600A23BB6011E0FDF7E2FCC2
:1055C000F8600923BB600BE0FDF7D3FCF8600C2307
:1055D000BB6005E00123BB6002E00023BB6000BFAD
:1055E0007B68002B02D07B68FA681A603B68002B4E
:1055F00002D03B68BA681A6000BF1037BD4680BD54
:105600000080005080B500AFFDF70EFC034600217E
:105610001846FFF73BFE00BF80BD000080B584B098
:1056200000AF786039600023FB60224BD3F8003272
:1056300003F00703042B2AD801A252F823F000BF7D
:105640008956000855560008615600086D56000836
:1056500079560008FDF784FCF8600A23BB6019E066
:10566000FDF790FCF8600923BB6013E0FDF781FCB7
:10567000F8600C23BB600DE0FDF7B8FB03469B0A06
:10568000FB600F23BB6005E00123BB6002E0002349
:10569000BB6000BF7B68002B02D07B68FA681A6091
:1056A0003B68002B02D03B68BA681A6000BF103715
:1056B000BD4680BD0080005080B584B000AF7860EA
:1056C00039600023FB60224BD3F8083203F0070354
:1056D000042B2AD801A252F823F000BF2557000856
:1056E000F1560008FD560008095700081557000834
:1056F000FDF736FCF8600A23BB6019E0FDF742FCB9
:10570000F8600923BB6013E0FDF733FCF8600C235D
:10571000BB600DE0FDF76AFB03469B0AFB600F23AD
:10572000BB6005E00123BB6002E00023BB6000BF5B
:105730007B68002B02D07B68FA681A603B68002BFC
:1057400002D03B68BA681A6000BF1037BD4680BD02
:105750000080005080B584B000AF786039600023CD
:10576000FB60124B1B6803F00403002B06D0FDF70F
:105770003DFB0346FB600D23BB6007E007F1080219
:1057800007F10C0311461846FFF7CAFC7B68002B93
:1057900002D0FA687B681A603B68002B02D0BA68B6
:1057A0003B681A6000BF1037BD4680BD10E000E0C6
:1057B00080B483B000AFEFF310833B603B687B6045
:1057C00072B600BF7B6818460C37BD465DF8047B97
:1057D000704780B483B000AF78607B68002B01D144
:1057E00062B600BF00BF0C37BD465DF8047B704752
:1057F00080B483B000AF786039607B681A683B681A
:1058000022FA03F303F0010318460C37BD465DF896
:10581000047B704780B500AF00BF04210448FFF748
:10582000E7FF0346002BF8D100BF00BF80BD00BFDB
:105830008440005080B500AFFFF7ECFF044BD3F875
:1058400084309B0903F00303DBB2184680BD00BF20
:105850000040005080B483B000AF0346FB71FB7979
:10586000013B4FF4806202FA03F318460C37BD4641
:105870005DF8047B704780B483B000AF0346FB71D2
:1058800000BF0C37BD465DF8047B704780B584B01F
:1058900000AF78600B46FB707B68002B03D1FDF7EF
:1058A0007DFAF86001E07B68FB600C4B1B78002BF5
:1058B00009D0FB680A4A934205D8FB7819460120B3
:1058C00000F010F805E0FB781946022000F00AF815
:1058D00000BF00BF1037BD4680BD00BFF8020020EA
:1058E000005A620290B587B000AF03460A46FB71CA
:1058F0001346BB71FFF79EFF03461A46FB7993429E
:105900003CD0FDF74BFA78617B693B61FB79012B59
:1059100003D101217869FFF76DF9FFF749FFF860BE
:10592000184B03F500531A464FF000735366FB798A
:105930001846FFF7A0FF134CFB791846FFF78AFFC4
:105940000346236702E00F4BD3F884300D4B5B6EA8
:1059500003F00073002B06D10A4BD3F8843003F018
:105960002003002BEFD0F868FFF733FFFB79022B01
:1059700005D100217869FFF73DF900E000BF1C3731
:10598000BD4690BD0040005080B586B000AFF860C5
:10599000B9607A60FFF70CFF7861FB681A68BB6832
:1059A000DB431A407968BB680B401A43FB681A60F6
:1059B0007869FFF70EFF00BF1837BD4680BD0000B5
:1059C00080B483B000AF03463960FB71FB79002BD4
:1059D00007D0FB79012B04D0FB79022B01D0FB7996
:1059E000032B0948FA7901213B68994013465B0073
:1059F00013441B01034403F50153196000BF0C3726
:105A0000BD465DF8047B704700C0035080B483B08E
:105A100000AF03463960FB71FB79002B07D0FB799F
:105A2000012B04D0FB79022B01D0FB79032B094811
:105A3000FA7901213B68994013465B0013441B012E
:105A4000034403F58253196000BF0C37BD465DF86F
:105A5000047B704700C0035080B584B000AFB960CC
:105A60007A603B600346FB73FB7B002B07D0FB7B1C
:105A7000012B04D0FB7B022B01D0FB7B032B7B682B
:105A8000002B0DD03B68002B05D0FB7BB968184676
:105A9000FFF7BCFF04E0FB7BB9681846FFF790FFF7
:105AA000BB68072B16D8FA7B13465B0013441B0117
:105AB0001A1D1F4B1344BA6892000F2101FA02F01D
:105AC000BA689200796801FA02F201461846FFF7B7
:105AD0005BFF18E0FA7B13465B0013441B0103F1E4
:105AE0000C02134B1344BA68083A92000F2101FAD2
:105AF00002F0BA68083A9200796801FA02F20146A7
:105B00001846FFF741FF7B68002B0DD13B68002B47
:105B100005D0FB7BB9681846FFF778FF04E0FB7BF4
:105B2000B9681846FFF74CFF00BF1037BD4680BD6F
:105B300030C0035080B483B000AF786039607B68B8
:105B400003F500531A463B68D36300BF0C37BD46CC
:105B50005DF8047B704780B487B000AFF860B9602F
:105B60007A607B68002B04D0FB6803F580537B616F
:105B700003E0FB6803F500537B617B690121BA6890
:105B800001FA02F21A6000BF1C37BD465DF8047BC3
:105B9000704780B586B000AFF860B9607A60FFF7F3
:105BA00007FE7861FB681A68BB68DB431A407968B6
:105BB000BB680B401A43FB681A607869FFF709FE5F
:105BC00000BF1837BD4680BD80B582B000AF786099
:105BD00001E07B685B6A7B685B6903F48073002B80
:105BE000F7D120217868FFF7A5FF00BF0837BD4631
:105BF00080BD000080B588B000AFF860B9607A6001
:105C0000FB707B68002B00F08180FB7803F00303BE
:105C1000FB70FB689B6823F44072FB689A60FB682A
:105C200003F10800FB781B021A464FF44071FFF79E
:105C3000B0FFBB68002B10D1FB68B3F1B64F04D1A5
:105C40002E20FDF785FCB86007E0FB68324A9342DE
:105C500003D12F20FDF77CFCB8604FF0FF33BB6110
:105C6000FB689B6803F00203002B12D0FB78022B29
:105C70000CD0022B20DC002B02D0012B03D01BE028
:105C8000264BBB611BE0264BBB6118E0254BBB617B
:105C900015E0FB78022B0CD0022B0FDC002B02D07E
:105CA000012B03D00AE01D4BBB6108E01E4BBB611A
:105CB00005E01E4BBB6102E000BF00E000BFFB78C7
:105CC0001B4AD35C7B617B697A6802FB03F33B610F
:105CD0003B69002B1CD07B68DB00BA68D21A3B6999
:105CE00013445A1E3B69B2FBF3F3013BFB61FB68B3
:105CF0009B6803F00203002B04D0FB69002B01D149
:105D00000123FB61FA69FB689A6102E000BF00E0D1
:105D100000BF2037BD4680BD0080065080841E0035
:105D2000404B4C00809FD50040548900002D31012C
:105D3000988C000880B582B000AF78600B46FB708D
:105D40007B68B3F1B64F02D07B68074A934200BF2D
:105D50007B680433FA7800211846FFF7FCFE00BF89
:105D60000837BD4680BD00BF0080065080B582B0B8
:105D700000AF786039607B68B3F1B64F02D07B68C2
:105D8000144A934200BF7B6800221A641249786863
:105D9000FFF7D0FE7B6803F108003B685B7883F077
:105DA0000103DBB21A460121FFF7D5FE3B685968B3
:105DB0003B689A683B681B7B7868FFF71BFF3B6872
:105DC0001B7819467868FFF7B5FF00BF0837BD4656
:105DD00080BD00BF00800650FFFF1F0080B58AB065
:105DE00000AF78600023FB777B68B3F1B64F02D039
:105DF0007B689B4A934200BF7B68B3F1B64F02D1E8
:105E0000984B3B6209E07B68954A934202D1964BDE
:105E10003B6202E06FF003032AE23B6A9B68BB61CE
:105E20000AE27B68DB6B7B617B6903F4C063002B58
:105E300014D07B6903F40073002B03D03B6AFD226E
:105E40005A7007E07B6903F48063002B02D03B6A41
:105E5000FE225A703B6A09221A70F4E13B6A1B78F1
:105E6000082B00F2E08101A252F823F0915E0008B5
:105E7000E75E0008755F0008CF5F00083B60000820
:105E8000A16000083161000877610008076200081E
:105E9000BB695B8803F01003002B09D0BB691B882A
:105EA0001B0A9BB203F0060343F0F0037B620EE093
:105EB000BB691B8803F0FE037B62BB695B8803F050
:105EC0000203002B03D07B6A43F001037B623B6A31
:105ED00001221A707B687A6A5A637B680122DA6051
:105EE0000123FB77A8E17B6903F08003002B0DD031
:105EF00080217868FFF71EFE3B6AFF225A703B6ADA
:105F000008221A707B680222DA6030E07B6903F0B5
:105F10004003002B2BD040217868FFF70BFEBB69B4
:105F20005B8803F01003002B08D03B6A02221A7032
:105F3000BB691B88DAB27B685A6318E0BB695B886F
:105F400003F00203002B0ED03B6A07221A703B6A53
:105F50001B79BA69DB0013441B89012B07D17B68CD
:105F60000822DA6003E03B6A05221A7064E101232B
:105F7000FB7761E17B6903F08003002B0DD080216A
:105F80007868FFF7D7FD3B6AFF225A703B6A082208
:105F90001A707B680222DA6016E07B6903F0400326
:105FA000002B11D040217868FFF7C4FDBB695B88E6
:105FB00003F00203002B03D03B6A03221A703BE17B
:105FC0003B6A05221A7037E10123FB7734E1BB6994
:105FD0005B8803F01003002B09D0BB691B881B0AE8
:105FE0009BB203F0060343F0F0037B6204E0BB695D
:105FF0001B8803F0FE037B62BB695B8803F004032C
:10600000002B0ED07B6A43F001037B623B6A1B7955
:10601000BA69DB0013441B89012B02D17B6808227B
:10602000DA603B6A04221A707B680122DA607B68BE
:106030007A6A5A630123FB77FEE07B6903F08003F1
:10604000002B13D080217868FFF774FD3B6AFF2294
:106050005A703B6A08221A707B680222DA601CE0E0
:1060600000800650FC020020080300207B6903F03A
:106070004003002B11D040217868FFF75BFDBB691E
:106080005B8803F00403002B03D03B6A07221A70DD
:1060900003E03B6A05221A70CEE00123FB77CBE0D8
:1060A0003B6A5A883B6A1B79B969DB000B441B8940
:1060B0009A4226D33B6A00225A803B6A1B790133FD
:1060C000DAB23B6A1A71BB695B8803F00403002BE8
:1060D00003D03B6A03221A70AEE0BB695B8803F011
:1060E0000103002B04D13B6A1B79012B40F2A480F1
:1060F0003B6A08221A707B680222DA600123FB7770
:106100009AE03B6A1B79BA69DB0013445A683B6A20
:106110005B88591C88B2396A488013441B781A4638
:106120007B685A633B6A06221A700123FB7783E07F
:106130007B6903F08003002B0DD080217868FFF786
:10614000F9FC3B6AFF225A703B6A08221A707B688E
:106150000222DA600CE07B6903F04003002B07D0D9
:1061600040217868FFF7E6FC3B6A05221A7063E07D
:106170000123FB7760E07B6903F02003002B3FD015
:106180003B6A1B79BA69DB0013441B893B617B685E
:106190005B6AFB7320217868FFF7CCFC3B6A5B8865
:1061A0001A463B6993420ED93B6A1B79BA69DB00F8
:1061B00013445A683B6A5B88591C88B2396A488024
:1061C0001344FA7B1A703B6A5B881A463B69934218
:1061D00006D83B6A08221A707B680222DA600FE058
:1061E0007B680422DA603B69012B09D93B6A5B8832
